:02000000742862
:10000800FF00030E8301AB000A08AC008A017008E8
:10001800A0000B1D1328A70A0319A80A0B118B1C93
:10002800592823182D28A701A801231400302206D7
:10003800031D202800302106031D26280130A100B9
:100048000030A2002108A9002208AA000130A4005B
:1000580058282310A901AA0100302206031D3628BA
:1000680000302106031D3C280130A1000030A20009
:100078002208043A031D422800302106031D4628A1
:10008800A101A2012208043A031D4C2800302106D0
:1000980003195128A10DA20D211024080A3A031DA5
:1000A8005728A4015828A40A8B102008F0002C080F
:0C00B8008A002B0E8300FF0E7F0E090053
:0C00C400831226088A002508820008002C
:1000D00062208A110A128000840AA50A0319A60A5E
:0800E000F003031D682808006D
:1000E80083168112811101108110011101138B17E0
:1000F8008B160B1685018312850101308316860045
:100108008312860181010B118B10A701A801A90197
:10011800AA01A101A20128080F3A031D952842301F
:100128002706031DCC28A701A801231CCC280030D2
:100138002206031DA12800302106031DA72801302F
:10014800A1000030A2002208043A031DAD280030A7
:100158002106031DB128A101A2012208043A031DAA
:10016800B728003021060319BC28A10DA20D2110C3
:100178002108A9002208AA0024080A3A031DCB284E
:10018800A901AA01A101A201A4012310CC28A40A53
:100198002918D0288511D12885152908F0002A08A2
:1001A800F100F10CF00CF1137018DC288610DD2832
:1001B80086142908F0002A08F100F10CF00CF1135C
:1001C800F10CF00CF1137018EB280611EC28061549
:1001D8002908F0002A08F100F10CF00CF113F10CD9
:1001E800F00CF113F10CF00CF1137018FD288611C6
:1001F800FE2886152908F0002A08F100F10CF00CF9
:10020800F113F10CF00CF113F10CF00CF113F10CEB
:10021800F00CF1137018122906121329061605306E
:10022800F2002908F0002A08F100720803192129B0
:10023800F10CF00CF113FF3E1A29701825298612CB
:10024800262986160630F2002908F0002A08F1004F
:10025800720803193429F10CF00CF113FF3E2D2913
:10026800701838290613392906170730F2002908AB
:10027800F0002A08F100720803194729F10CF00C64
:10028800F113FF3E402970184B2986134C29861715
:100298002A08F000F1017018532905105429051493
:1002A8000930F2002908F0002A08F1007208031941
:1002B8006229F10CF00CF113FF3E5B2970186629D6
:0A02C8008510672985148F28682926
:02400E00CA20C6
:00000001FF
